:020000040800F2
:10000000000002203918000891090008930900082F
:1000100095090008970900089909000800000000E8
:100020000000000000000000000000009B09000824
:100030009D090008000000009F090008A1090008B0
:10004000891800088918000889180008891800080C
:1000500089180008891800088918000889180008FC
:1000600089180008891800088918000889180008EC
:1000700089180008891800088918000889180008DC
:1000800089180008891800088918000889180008CC
:1000900089180008891800088918000889180008BC
:1000A00089180008891800088918000889180008AC
:1000B000891800088918000889180008891800089C
:1000C000891800088918000889180008891800088C
:1000D000891800088918000889180008891800087C
:1000E000891800088918000889180008891800086C
:1000F000891800088918000889180008891800085C
:10010000891800088918000889180008891800084B
:10011000891800088918000889180008891800083B
:10012000891800088918000889180008891800082B
:10013000891800088918000889180008891800081B
:10014000891800088918000889180008891800080B
:1001500089180008891800088918000889180008FB
:1001600089180008891800088918000889180008EB
:100170008918000889180008891800080000000084
:08018000891800088918000825
:1001900010B5054C237833B9044B13B10448AFF3C1
:1001A00000800123237010BD7000002000000000BB
:1001B0000821000808B5034B1BB103490348AFF3FE
:1001C000008008BD00000000740000200821000825
:1001D00053B94AB9002908BF00281CBF4FF0FF31AE
:1001E0004FF0FF3000F072B9ADF1080C6DE904CEAC
:1001F00000F006F8DDF804E0DDE9022304B0704702
:100200002DE9F047089E04468846002B4BD18A42D0
:10021000154667D9B2FA82F24AB1C2F1200701FA53
:1002200002F320FA07F7954047EA030894404FEAA3
:10023000154E230CB8FBFEF71FFA85FC0EFB178842
:1002400043EA084307FB0CF1994209D9EB1807F17F
:10025000FF3080F01B81994240F21881023F2B440D
:100260005B1AA4B2B3FBFEF00EFB103344EA034466
:1002700000FB0CFCA44509D92C1900F1FF3380F0D8
:100280000781A44540F2048102382C4440EA07402B
:10029000A4EB0C0400271EB1D4400023C6E90043A0
:1002A0003946BDE8F0878B4209D9002E00F0EB807B
:1002B0000027C6E9000138463946BDE8F087B3FAA1
:1002C00083F7002F47D18B4202D3824200F2FA809B
:1002D000841A61EB030301209846002EE0D0C6E9A2
:1002E0000048DDE702B9FFDEB2FA82F2002A40F0F0
:1002F0008F80491B4FEA154E1FFA85F80127B1FB85
:10030000FEFC230C0EFB1C1143EA014308FB0CF11D
:10031000994207D9EB180CF1FF3002D2994200F252
:10032000CD808446591AA3B2B1FBFEF00EFB101427
:1003300043EA044408FB00F8A04507D92C1900F152
:10034000FF3302D2A04500F2B6801846A4EB0804A1
:1003500040EA0C409FE7C7F1200CBB4022FA0CFE9C
:100360004EEA030E01FA07F420FA0CF521FA0CF319
:100370004FEA1E482543B3FBF8F92C0C08FB193350
:100380001FFA8EFA44EA034309FB0AF49C4202FA7C
:1003900007F200FA07F10BD91EEB030309F1FF3056
:1003A00080F087809C4240F28480A9F10209734466
:1003B0001B1BADB2B3FBF8F008FB103345EA034456
:1003C00000FB0AFAA24508D91EEB040400F1FF3332
:1003D0006BD2A24569D90238744440EA0940A0FBB7
:1003E0000289A4EB0A044C45C2464B4654D351D073
:1003F000002E69D0B1EB0A0564EB030404FA0CFC8F
:10040000FD40FC404CEA0505C6E90054002747E7DB
:10041000C2F1200320FA03F7954001FA02F021FA15
:1004200003F34FEA154E3843010CB3FBFEF71FFAF6
:1004300085F80EFB173341EA034107FB08F38B42B3
:1004400004FA02F407D9691807F1FF3C2FD28B4256
:100450002DD9023F2944CB1A81B2B3FBFEF00EFB2B
:10046000103341EA034100FB08F38B4207D96918B6
:1004700000F1FF3C17D28B4215D902382944C91A22
:1004800040EA07473BE73746304609E70746E7E6D5
:100490001846FBE64145ABD2B8EB020A69EB0E0207
:1004A00001381346A4E76046E9E7184695E7674632
:1004B000D1E781467CE702382C4447E7ACF1020CD7
:1004C0002B442FE7384608E73746E9E6704700BF78
:1004D000034613F8012B002AFBD1181A0138704784
:1004E00001F0FF01102A2BDB10F0070F08D010F8E5
:1004F000013B013A8B422DD010F0070F42B3F6D1E9
:10050000F0B441EA012141EA014122F007047FF001
:1005100000070023F0E80256083C85EA010586EA58
:10052000010685FA47F5A3FA87F586FA47F6A5FA94
:1005300087F68EB9EED1F0BC01F0FF0102F00702A0
:1005400032B110F8013B013A83EA010313B1F8D14B
:100550000020704701387047002D06BF354603382C
:10056000073815F0010F07D1013015F4807F02BF65
:10057000013015F4C03F0130F0BC0138704700BFB6
:1005800070B588B0002400941C4B1A6B42F0010235
:100590001A631A6B02F001020092009A01941A6B1E
:1005A00042F008021A631A6B02F008020192019AE3
:1005B00002941A6B42F004021A631B6B03F00403EB
:1005C0000293029B0E4D22464FF47041284600F0E4
:1005D000D0FB012603960494059403A9094800F072
:1005E000DDFA4FF47043039304960594069403A92F
:1005F000284600F0D3FA08B070BD00BF00380240B2
:10060000000C0240000002400FB430B597B01AACA5
:1006100054F8045B5022002102A801F05BF9019418
:100620002246294602A801F073F902A8FFF750FFFD
:100630004FF0FF3382B202A9034801F08DF817B0E2
:10064000BDE8304004B070479800002098B500AF76
:100650000948FFF7D9FF094B1C6821460848FFF7F6
:10066000D3FF84F30888074B1C6821460648FFF730
:10067000CBFFA04798BD00BF3821000800800008CC
:10068000642100080480000884210008FEE70000BF
:1006900008B50548054B036000F06FFA00B908BDC6
:1006A000D3210348FFF7F2FFD800002000300240BA
:1006B000B421000808B50B480B4B03604FF4E1333D
:1006C000436000238360C36003610C224261836145
:1006D000C36101F012F800B908BDE6210348FFF735
:1006E000D5FF00BFE000002000440040B421000816
:1006F00008B50B480B4B03604FF4E1334360002314
:100700008360C36003610C2242618361C36100F0B6
:10071000F4FF00B908BDF9210348FFF7B7FF00BF98
:100720009800002000480040B421000800B595B0B2
:1007300000220192284B196C41F0805119641B6C06
:1007400003F080530193019B0292244B196841F4FA
:10075000804119601B6803F480430293029B0223CB
:10076000089301210B9110210C910E930F9210917F
:10077000A822119212930423139308A800F000FBFF
:1007800008BB0F23039302210491002305934FF428
:1007900080520692079303A800F012FDB8B900F04A
:1007A000BBFD0F4BA3FB0030800900F0BBF9042018
:1007B00000F0CEF9002211464FF0FF3000F07EF934
:1007C00015B05DF804FBAF210648FFF75FFFBD21C0
:1007D0000448FFF75BFF00BF003802400070004094
:1007E000D34D6210B421000808B500F029F9FFF7D5
:1007F0009DFFFFF7C5FEFFF74BFFFFF75BFFFFF71E
:1008000077FF0121074800F0ADFA012805D006481E
:10081000FFF7FAFEFFF71AFFFEE70448FFF7F4FEC2
:10082000FAE700BF0000024000220008C8210008CB
:1008300010B582B000240094214B5A6C42F48042DF
:100840005A645A6C02F480420092009A01941A6C25
:1008500042F080521A641B6C03F080530193019B99
:10086000032000F019F9224621466FF00B0000F03A
:1008700025F9224621466FF00A0000F01FF92246B2
:1008800021466FF0090000F019F9224621466FF069
:10089000040000F013F9224621466FF0030000F037
:1008A0000DF9224621466FF0010000F007F92246BB
:1008B00021464FF0FF3000F001F902B010BD00BF3B
:1008C000003802400268094B9A4200D0704782B05B
:1008D00000230193064B1A6B42F480521A631B6B80
:1008E00003F480530193019B02B070470030024033
:1008F0000038024000B589B00368204A934205D011
:100900001F4A93421DD009B05DF804FB00230193F8
:100910001C4B1A6C42F400321A641B6C03F4003353
:100920000193019B0C23039302230493012305935A
:10093000032306930723079303A9134800F02EF916
:10094000E1E7002302930F4B1A6C42F480221A64F1
:100950001B6C03F480230293029B4FF440630393C8
:10096000022304930123059303230693072307938C
:1009700003A9064800F012F9C5E700BF0044004093
:1009800000480040003802400000024000080240D9
:100990007047FEE7FEE7FEE7FEE7704770477047E7
:1009A00008B500F067F800F0E4F808BD0F49D1F889
:1009B000883043F47003C1F888300D4B1A6842F058
:1009C00001021A60002098601A6822F0847222F4F2
:1009D00080321A60074A5A601A6822F480221A602C
:1009E000D8604FF000638B60704700BF00ED00E0FF
:1009F000003802401030002410B504460E4B187821
:100A00004FF47A73B3FBF0F30C4A1068B0FBF3F0C9
:100A100000F088F868B90F2C01D901200AE0002203
:100A200021464FF0FF3000F049F8034B5C60002096
:100A300000E0012010BD00BF0400002000000020E5
:100A400008B50B4B1A6842F400721A601A6842F437
:100A500080621A601A6842F480721A60032000F003
:100A60001BF80020FFF7C8FFFFF7E2FE002008BDDB
:100A7000003C0240034A1168034B1B780B4413608F
:100A8000704700BF2001002004000020014B1868BF
:100A9000704700BF20010020074AD36823F4E063B9
:100AA0001B041B0C000200F4E060184340F0BF6020
:100AB00040F40030D060704700ED00E030B4174BD8
:100AC000DB68C3F30223C3F10704042C28BF04240A
:100AD0001D1D062D18D9033B4FF0FF3505FA04F410
:100AE00021EA0401994005FA03F322EA03031943BA
:100AF00000280BDB0901C9B200F1604000F561403C
:100B000080F8001330BC70470023E5E700F00F00C9
:100B10000901C9B2024B1954F4E700BF00ED00E02F
:100B200014ED00E00138B0F1807F0AD2064B586026
:100B3000064AF02182F823100020986007221A60EC
:100B400070470120704700BF10E000E000ED00E0BA
:100B5000042805D0054A136823F004031360704786
:100B6000024A136843F004031360704710E000E08A
:100B7000704708B5FFF7FCFF08BD68B110B5044623
:100B800043792BB10223637101236371002010BDEF
:100B90000371FFF797FEF5E70120704700230F2B45
:100BA00000F2D780F0B482B039E0072200E00022E2
:100BB000B2403A430234674E46F82420664A14682D
:100BC000EA4302EA04064F6817F4803F01D045EA81
:100BD0000406614C2660646802EA04064F6817F454
:100BE000003F01D045EA04065B4C6660A46802EA57
:100BF00004064F6817F4801F01D045EA0406564CDE
:100C0000A660E46822404E6816F4001F01D045EA51
:100C10000402514CE26001330F2B00F29780012255
:100C20009A400C6804EA0205AA42F4D14C68022CEE
:100C300001D0122C10D1DE08083650F826C003F07F
:100C40000704A7000F24BC402CEA040C0C69BC402C
:100C500044EA0C0440F8264004685F000326BE40C6
:100C6000F64306EA040C4C6804F00304BC4044EA72
:100C70000C0404604C6804F1FF3CBCF1010F03D983
:100C8000112C01D0122C10D1846806EA040CCC6817
:100C9000BC4044EA0C048460446824EA02024C68C4
:100CA000C4F300149C4014434460C26816408A6830
:100CB000BA403243C2604A6812F0805FABD0002273
:100CC0000192264A546C44F480445464526C02F4F9
:100CD00080420192019A9C08A61C1E4A52F8267076
:100CE00003F0030296000F22B24027EA02071C4AD3
:100CF00090423FF45CAF02F5806290421AD002F558
:100D00008062904218D002F58062904216D002F5BF
:100D10008062904214D002F58062904212D002F5B7
:100D20008062904210D002F5806290423FF43DAF65
:100D300008223DE701223BE7022239E7032237E799
:100D4000042235E7052233E7062231E702B0F0BC82
:100D50007047704700380140003C014000380240B5
:100D6000000002400369194201D1002070470120B0
:100D7000704712B9090481617047816170470000B2
:100D8000002800F0BB8170B582B00446036813F000
:100D9000010F3BD0A74B9B6803F00C03042B2CD016
:100DA000A44B9B6803F00C03082B21D06368B3F5B8
:100DB000803F4FD0B3F5A02F52D09E4B1A6822F43B
:100DC00080321A601A6822F480221A606368002B4D
:100DD00050D0FFF75BFE0546964B1B6813F4003FAF
:100DE00014D1FFF753FE401B6428F5D903208AE194
:100DF000904B5B6813F4800FD8D08E4B1B6813F4B4
:100E0000003F03D06368002B00F07A81236813F061
:100E1000020F55D0874B9B6813F00C0F3ED0854BCB
:100E20009B6803F00C03082B33D0E368002B68D0D9
:100E3000814B01221A60FFF729FE05467D4B1B6896
:100E400013F0020F54D1FFF721FE401B0228F5D901
:100E5000032058E1774A136843F480331360B5E701
:100E6000744B1A6842F480221A601A6842F4803285
:100E70001A60ABE7FFF70AFE05466E4B1B6813F4DA
:100E8000003FC3D0FFF702FE401B6428F5D90320C2
:100E900039E1684B5B6813F4800FC6D1654B1B6862
:100EA00013F0020F04D0E368012B01D001202AE1E6
:100EB000604A136823F0F803216943EAC103136011
:100EC000236813F0080F40D0636963B35B4B0122C2
:100ED0001A60FFF7DBFD0546564B5B6F13F0020F00
:100EE00033D1FFF7D3FD401B0228F5D903200AE1D7
:100EF000504A136823F0F803216943EAC1031360E1
:100F0000DEE74D4B00221A60FFF7C0FD0546494B56
:100F10001B6813F0020FD3D0FFF7B8FD401B022867
:100F2000F5D90320EFE0454B00221A60FFF7AEFD34
:100F30000546404B5B6F13F0020F06D0FFF7A6FD8E
:100F4000401B0228F5D90320DDE0236813F0040FCD
:100F500079D0384B1B6C13F0805F33D100230193A1
:100F6000344B1A6C42F080521A641B6C03F08053AD
:100F70000193019B0125324B1B6813F4807F23D022
:100F8000A368012B34D0052B38D02A4B1A6F22F0DE
:100F900001021A671A6F22F004021A67A368002B75
:100FA00036D0FFF773FD0646224B1B6F13F0020F7E
:100FB00048D1FFF76BFD801B41F288339842F3D98B
:100FC0000320A0E00025D6E71D4A136843F4807390
:100FD0001360FFF75BFD0646194B1B6813F4807F17
:100FE000CED1FFF753FD801B0228F5D903208AE0FC
:100FF000104A136F43F001031367CFE70D4B1A6FCD
:1010000042F004021A671A6F42F001021A67C5E73C
:10101000FFF73CFD0646074B1B6F13F0020F11D084
:10102000FFF734FD801B41F288339842F3D9032047
:1010300069E000BF0038024000004742800E47428E
:1010400000700040E5B9A369002B5BD0304A92687C
:1010500002F00C02082A58D0022B17D02D4B002288
:101060001A60FFF713FD0446294B1B6813F0007F3D
:1010700042D0FFF70BFD001B0228F5D9032042E008
:10108000234A136C23F080531364DCE7214B0022C6
:101090001A60FFF7FBFC05461D4B1B6813F0007F31
:1010A00006D0FFF7F3FC401B0228F5D903202AE005
:1010B000E369226A1343626A43EA8213A26A52080E
:1010C000013A43EA0243E26A43EA0263104A536088
:1010D000104B01221A60FFF7D9FC04460C4B1B6829
:1010E00013F0007F06D1FFF7D1FC001B0228F5D9D1
:1010F000032008E0002006E0002004E00120704703
:10110000012000E0002002B070BD0120FBE700BF1D
:101110000038024060004742264B9B6803F00C03F6
:10112000042B44D0082B01D0234870472DE9F04B05
:10113000204B5A6802F03F025B6813F4800F13D013
:101140001C4B5968C1F3881100231C48A1FB000106
:10115000FFF73EF8174B5B68C3F3014301335B00B5
:10116000B0FBF3F0BDE8F08B124B5B68C3F3881360
:101170001E4600275C010025E41A65EB0705A9015E
:1011800041EA9461A001001B61EB0501CB0043EA39
:101190005073C400A01943EB07018B0243EA90533C
:1011A0008402204619460023FFF712F8D2E70348CD
:1011B000704700BF003802400024F40040787D01F1
:1011C000002800F09D8070B504464F4B1B6803F06B
:1011D0000F038B4209D2CBB24B4A1370136803F052
:1011E0000F038B4201D0012070BD236813F0020F62
:1011F00017D013F0040F04D0444A936843F4E0532B
:101200009360236813F0080F04D0404A936843F4B6
:10121000604393603D4A936823F0F003A068034362
:1012200093600D46236813F0010F32D06368012BE1
:1012300021D09A1E012A25D9344A126812F0020FD1
:1012400060D032498A6822F0030213438B60FFF7B3
:101250001DFC06462D4B9B6803F00C036268B3EB44
:10126000820F16D0FFF712FC801B41F288339842A0
:10127000F0D90320B8E7254A126812F4003FE0D104
:101280000120B1E7214A126812F0007FD9D1012074
:10129000AAE71D4B1B6803F00F03AB4209D9EAB262
:1012A000194B1A701B6803F00F03AB4201D00120E9
:1012B0009AE7236813F0040F06D0144A936823F4C6
:1012C000E053E1680B439360236813F0080F07D0E5
:1012D0000E4A936823F46043216943EAC103936093
:1012E000FFF71AFF094B9B68C3F30313084AD35C4B
:1012F000D840084B18600020FFF77EFB002073E702
:101300000120704701206FE7003C02400038024096
:101310002021000800000020014B1868704700BF22
:101320000000002008B5FFF7F7FF044B9B68C3F3EC
:101330008223034AD35CD84008BD00BF0038024076
:101340003021000808B5FFF7E7FF044B9B68C3F3A3
:101350004233034AD35CD84008BD00BF0038024086
:10136000302100082DE9F843044601680A6922F497
:101370004052C36813430B610168CA6822F41642E5
:1013800022F00C0283680069034360690343E0694B
:1013900003431343CB6021684A6922F44072A36976
:1013A00013434B61E369B3F5004F60D02368B84A3B
:1013B000934200F0148102F58062934200F00F81A5
:1013C000FFF7B0FF00EB800000EB80006568AD0028
:1013D000B0FBF5F5AF4FA7FB05356D092E01FFF703
:1013E000A1FF00EB800000EB80006568AD00B0FB62
:1013F000F5F9FFF797FF00EB800000EB80006568D0
:10140000AD00B0FBF5F5A7FB05356D094FF064089D
:1014100008FB15952D013235A7FB05356D0905F043
:10142000F0053544FFF77EFF00EB800000EB800005
:101430006668B600B0FBF6F6FFF774FF00EB8000BD
:1014400000EB800063689B00B0FBF3F0A7FB00306B
:10145000400908FB10684FEA081808F13208A7FB9A
:101460000837C7F3431723682F449F600DE12368B3
:10147000874A93425BD002F58062934257D0FFF7D0
:1014800051FF00EB800000EB800065686D00B0FB51
:10149000F5F5804FA7FB05356D092E01FFF742FFDB
:1014A00000EB800000EB800065686D00B0FBF5F993
:1014B000FFF738FF00EB800000EB800065686D00EF
:1014C000B0FBF5F5A7FB05356D094FF0640808FB87
:1014D0001595ED003235A7FB05356D096D0005F456
:1014E000F8753544FFF71EFF00EB800000EB80002D
:1014F00066687600B0FBF6F6FFF714FF00EB80009D
:1015000000EB800063685B00B0FBF3F3A7FB0323F1
:101510005B0908FB13684FEAC80808F13208A7FB0B
:101520000837C7F3421723682F449F60ADE0FFF7E9
:1015300009FF00EB800000EB800065686D00B0FBE8
:10154000F5F5544FA7FB05356D092E01FFF7FAFE9F
:1015500000EB800000EB800065686D00B0FBF5F9E2
:10156000FFF7F0FE00EB800000EB800065686D0087
:10157000B0FBF5F5A7FB05356D094FF0640808FBD6
:101580001595ED003235A7FB05356D096D0005F4A5
:10159000F8753544FFF7D6FE00EB800000EB8000C5
:1015A00066687600B0FBF6F6FFF7CCFE00EB800035
:1015B00000EB800063685B00B0FBF3F3A7FB032341
:1015C0005B0908FB13684FEAC80808F13208A7FB5B
:1015D0000837C7F3421723682F449F6055E0FFF791
:1015E000B1FE00EB800000EB80006568AD00B0FB51
:1015F000F5F5284FA7FB05356D092E01FFF7A2FE73
:1016000000EB800000EB80006568AD00B0FBF5F9F1
:10161000FFF798FE00EB800000EB80006568AD00EE
:10162000B0FBF5F5A7FB05356D094FF0640808FB25
:1016300015952D013235A7FB05356D0905F0F0052F
:101640003544FFF77FFE00EB800000EB800066680A
:10165000B600B0FBF6F6FFF775FE00EB800000EB7E
:10166000800063689B00B0FBF3F0A7FB00304009EB
:1016700008FB10684FEA081808F13208A7FB083782
:10168000C7F3431723682F449F60BDE8F88300BF6A
:10169000001001401F85EB512DE9F04105460F4632
:1016A00016469846069C2B681B6837EA03030CBF56
:1016B00001230023B3421DD1B4F1FF3FF3D02CB17D
:1016C000FFF7E4F9A0EB0800A042ECD92A68D36840
:1016D00023F4D073D3602A68536923F00103536164
:1016E000202385F8393085F83A30002385F83830E2
:1016F000032000E00020BDE8F08158B310B5044697
:1017000090F839300BB3242384F839302268D36839
:1017100023F40053D3602046FFF724FE22681369A8
:1017200023F4904313612268536923F02A03536121
:101730002268D36843F40053D3600020E063202381
:1017400084F8393084F83A3010BD80F83830FFF72B
:10175000D1F8D8E7012070472DE9F04182B01E464C
:1017600090F83930DBB2202B55D104460D46904617
:10177000002955D0002A55D090F83830012B53D08D
:10178000012380F838300023C363212380F83930E7
:10179000FFF77CF90746A4F82480A4F8268010E01F
:1017A00000963B46002280212046FFF775FF002867
:1017B0003CD12B882268C3F3080353602369C3B963
:1017C0000235E38C9BB2B3B1E38C013B9BB2E38463
:1017D000A368B3F5805FE3D000963B4600228021EA
:1017E0002046FFF759FF18BB2A7823685A60013555
:1017F000E7E70135E5E700963B4600224021204619
:10180000FFF74AFF0346A8B9202284F839200022B6
:1018100084F8382000E00223184602B0BDE8F081C9
:101820000123F9E70123F7E70223F5E70323F3E7B1
:101830000323F1E70323EFE7DFF834D0002103E0CF
:101840000C4B5B58435004310B480C4B42189A42E6
:10185000F6D30B4A02E0002342F8043B094B9A42BC
:10186000F9D3FFF7A3F800F011F8FEF7BDFF7047BA
:1018700000000220802200080000002070000020EC
:101880007000002028010020FEE7000070B50D4E1A
:101890000D4CA41BA4100025A54209D10B4E0C4CE5
:1018A00000F032FCA41BA4100025A54205D170BD98
:1018B00056F8253098470135EEE756F82530984719
:1018C0000135F2E778220008782200087822000823
:1018D0007C22000802440346934200D1704703F87B
:1018E000011BF9E700B59BB0009104916FF0004136
:1018F0000591029105490391694600F06DF8009B3E
:1019000000221A701BB05DF804FB00BF0802FFFF45
:1019100013460A46014602480068FFF7E3BF00BFCE
:101920000C0000202DE9F0478E689E4282460C464E
:101930009046994637D88A8912F4906F31D025683D
:1019400009696F1A6569022305EB450595FBF3F5F7
:1019500009F101033B449D4238BF1D46530530D574
:10196000294600F029FB064650B90C23CAF800307E
:10197000A38943F04003A3814FF0FF30BDE8F08717
:101980003A46216900F0A6FAA38923F4906343F054
:101990008003A381266165613E44ED1B2660A5603E
:1019A0004E464E4500D94E4632464146206800F02C
:1019B0009CFAA3689B1BA36023681E44266000203A
:1019C000DCE72A4600F052FB06460028E2D12169F6
:1019D000504600F0A3FAC8E72DE9F04F9DB08046CD
:1019E00003938B891D060C4616460FD50B696BB900
:1019F000402100F0E1FA2060206128B90C23C8F8EA
:101A000000304FF0FF30C7E04023636100230993AB
:101A100020238DF8293030238DF82A304FF0010B28
:101A200037463D4615F8013B0BB1252B3ED1B7EBB0
:101A3000060A0BD05346324621464046FFF772FF56
:101A4000013000F0A480099B534409933B78002B9C
:101A500000F09D8000234FF0FF32CDE90523049371
:101A600007938DF853301A932F46052217F8011B60
:101A70004F48FEF735FD049BD0B9D90644BF20225C
:101A80008DF853201A0744BF2B228DF853202A7853
:101A90002A2A15D0079A2F4600200A25394611F820
:101AA000013B303B092B4DD9B8B10FE02F46B8E7C9
:101AB0003F4A801A0BFA00F0184304903D46D3E7E2
:101AC000039A111D12680391002A01DB079204E0BA
:101AD000524243F00203079204933B782E2B0CD121
:101AE0007B782A2B33D1039B1A1D1B680392002B92
:101AF000B8BF4FF0FF33023705932E4D39780322DC
:101B00002846FEF7EDFC38B14023401B03FA00F0F5
:101B1000049B034301370493397827488DF8281034
:101B200006227E1CFEF7DCFC002838D0234B13BBBA
:101B3000039B073323F0070308330393099B4B44AC
:101B400009936DE705FB023201200F46A6E700234B
:101B50000137059319460A25384610F8012B303A0B
:101B6000092A03D9002BC8D00591C6E705FB01213E
:101B700001230746F0E703AB00932246104B04A96C
:101B80004046AFF30080B0F1FF3F8146D6D1A38934
:101B90005B063FF536AF09981DB0BDE8F08F03AB8B
:101BA00000932246064B04A9404600F081F8EAE77C
:101BB0003C220008422200084622000800000000E3
:101BC000251900082DE9F04791461F468A680B69E0
:101BD000DDF820809342B8BF1346C9F8003091F871
:101BE000432006460C4612B10133C9F80030236881
:101BF000990642BFD9F800300233C9F80030256891
:101C000015F0060507D104F1190AE368D9F8002098
:101C10009B1AAB4228DC94F843302268003318BF8B
:101C2000012392062DD404F1430239463046C047C1
:101C3000013020D02368E568D9F8002003F00603BE
:101C4000042B08BFAD1AA36822690CBF25EAE5750D
:101C500000259342C4BF9B1AED184FF000091A34B7
:101C60004D451AD1002008E001235246394630463E
:101C7000C047013003D14FF0FF30BDE8F087013598
:101C8000C3E7E1185A1C302081F84300224494F83D
:101C9000451082F843100233C5E701232246394636
:101CA0003046C0470130E6D009F10109D8E700000D
:101CB0002DE9F04301F1430C0C46097E85B06E29F5
:101CC0001746064698460C9A00F0B38022D863293E
:101CD00036D00AD8002900F0B980582900F0838056
:101CE00004F1420584F8421032E0642901D06929E8
:101CF000F6D120681368050603F104012AD51B6894
:101D00001160002B03DA2D225B4284F843206F48D8
:101D10000A2239E0732900F09D8008D86F2920D06D
:101D20007029DDD1236843F02003236003E0752987
:101D300017D07829D4D1782384F84530644855E009
:101D40001368191D1B68116004F1420584F84230C4
:101D500001238CE01B68116010F0400F18BF1BB20C
:101D6000CFE713682568181D1060280601D51B6889
:101D700002E06806FBD51B8854486F2914BF0A226D
:101D80000822002184F843106568A560002DC0F288
:101D90009580216821F004012160002B3DD1002DA8
:101DA00040F08E806546082A0BD12368DB0708D5F2
:101DB000236962689A42DEBF302305F8013C05F1D1
:101DC000FF35ACEB05032361CDF800803B4603AA49
:101DD00021463046FFF7F6FE01304DD14FF0FF307F
:101DE00005B0BDE8F083394884F8451013682168D0
:101DF0001D1D1B6815600A060BD5CA0744BF41F0BC
:101E0000200121601BB9226822F0200222601022EA
:101E1000B7E74D0648BF9BB2EFE76546B3FBF2F16B
:101E200002FB1133C35C05F8013D0B460029F5D1D7
:101E3000B9E7136825686169181D106028061B68DA
:101E400001D5196002E06A06FBD5198000232361E1
:101E50006546B9E71368191D11601D6862680021A5
:101E60002846FEF73DFB08B1401B606063682361B4
:101E7000002384F84330A7E723692A4639463046D1
:101E8000C0470130AAD023689B0713D4E068039BA6
:101E90009842B8BF1846A3E701234A463946304660
:101EA000C04701309AD00135E368039A9B1AAB42D0
:101EB000F2DCEBE7002504F11909F5E7002BACD1C2
:101EC000037884F8423004F142056CE74D220008A3
:101ED0005E22000810B5431E0A44914200D110BD95
:101EE00011F8014B03F8014FF7E7884210B501EBF9
:101EF000020307D8421E99420AD011F8014B02F89A
:101F0000014FF8E78342F5D98118D21AD34200D1A4
:101F100010BD13F8014D01F8014DF7E738B505463E
:101F2000002945D051F8043C0C1F002BB8BFE41821
:101F300000F0D2F81F4A1368104633B9636014608A
:101F40002846BDE8384000F0C8B8A3420CD9216843
:101F50006218934204BF1A685B68636004BF52183A
:101F600022600460ECE713465A680AB1A242FAD92B
:101F700019685818A0420BD12068014458188242B1
:101F80001960DDD1106852685A6001441960D7E7C2
:101F900002D90C232B60D3E7206821188A4204BFA2
:101FA00011685268626004BF091821605C60C7E76D
:101FB00038BD00BF8C00002070B5CD1C25F0030596
:101FC00008350C2D38BF0C25002D064601DBA94233
:101FD00003D90C233360002070BD00F07DF8214A46
:101FE0001468214691B9204C23681BB9304600F093
:101FF00063F820602946304600F05EF8431C24D187
:102000000C233360304600F068F8E4E70B685B1B94
:1020100018D40B2B0FD90B60CD50CC18304600F0E4
:102020005CF804F10B00231D20F00700C31AD3D085
:102030005A42E250D0E78C424B6816BF636013608F
:102040000C46EBE70C464968CCE7C41C24F00304BB
:10205000A04205D0211A304600F02EF80130CFD032
:102060002560DBE78C00002090000020F8B50746D3
:1020700014460E4621B91146BDE8F840FFF79CBF53
:1020800022B9FFF74BFF25462846F8BD00F026F899
:10209000A0420FD221463846FFF78EFF05460028A2
:1020A000F2D031462246FFF715FF31463846FFF79A
:1020B00035FFE9E73546E7E738B5064C0023054626
:1020C0000846236000F012F8431C02D1236803B1D4
:1020D0002B6038BD240100207047704751F8043C44
:1020E000181F002BBCBF0B58C0187047044A054985
:1020F0001368002B08BF0B46184410601846704741
:102100009400002028010020F8B500BFF8BC08BCEE
:102110009E467047F8B500BFF8BC08BC9E467047A5
:102120000000000000000000010203040607080987
:102130000000000001020304424C5F444542554741
:102140005F4D53473A626F6F746C6F616465725F85
:102150006A756D705F746F5F757365725F617070C3
:102160000A0D0000424C5F44454255475F4D5347BE
:102170003A4D53502076616C7565203A20252378BE
:102180000A0D0000424C5F44454255475F4D53479E
:102190003A206170702072657365742068616E64A6
:1021A0006C65722061646472203A202523780A0DE0
:1021B000000000002E2E2F436F72652F5372632F85
:1021C0006D61696E2E630000424C5F444542554785
:1021D0005F4D53473A427574746F6E206973207077
:1021E000726573736564202E2E20676F696E672099
:1021F000746F20424C206D6F64650A0D0000000072
:10220000424C5F44454255475F4D53473A427574CF
:10221000746F6E206973206E6F74207072657373B3
:102220006564202E2E20657865637574696E67205D
:1022300075736572206170700A0D0000232D302BBC
:102240002000686C4C0065666745464700303132B7
:10225000333435363738394142434445460030310E
:10226000323334353637383961626364656600006D
:0822700090DFFF7F0100000078
:04227800B5010008A4
:04227C0091010008C4
:102280000024F400010000001000000010000020F5
:10229000000000000000000000000000000000003E
:1022A000000000000000000000000000000000002E
:1022B000000000000000000000000000000000001E
:1022C000000000000000000000000000000000000E
:1022D00000000000000000000000000000000000FE
:1022E00000000000000000000000000000000000EE
:04000005080018399E
:00000001FF
